:020000040800F2
:100000000040022019470008810500088505000806
:1000100000000000000000000000000000000000E0
:10002000000000000000000000000000950500082E
:100030000000000000000000970500089905000876
:100040006947000800000000694700086947000888
:1000500069470008694700086947000869470008C0
:1000600069470008A1050008B1050008C905000896
:100070006947000869470008694700080000000058
:1000800069470008D9050008694700086947000862
:100090006947000869470008694700086947000880
:1000A000694700086947000869470008E905000832
:1000B000F90500086947000810B5064C2378002BA5
:1000C00007D1054B002B02D0044800E000BF0123FC
:1000D000237010BDA0000020000000003C57000865
:1000E000044B10B5002B03D00349044800E000BFC7
:1000F00010BDC04600000000A40000203C570008CE
:1001000002B4714649084900095649008E4402BCB0
:100110007047C04602B4714649084900095C49006D
:100120008E4402BC7047C04603B471464908400083
:100130004900095E49008E4403BC70470022430811
:100140008B4274D303098B425FD3030A8B4244D39F
:10015000030B8B4228D3030C8B420DD3FF220902E1
:1001600012BA030C8B4202D31212090265D0030BA0
:100170008B4219D300E0090AC30B8B4201D3CB0396
:10018000C01A5241830B8B4201D38B03C01A5241D8
:10019000430B8B4201D34B03C01A5241030B8B42DA
:1001A00001D30B03C01A5241C30A8B4201D3CB02C5
:1001B000C01A5241830A8B4201D38B02C01A5241AA
:1001C000430A8B4201D34B02C01A5241030A8B42AD
:1001D00001D30B02C01A5241CDD2C3098B4201D3C5
:1001E000CB01C01A524183098B4201D38B01C01A43
:1001F000524143098B4201D34B01C01A52410309BA
:100200008B4201D30B01C01A5241C3088B4201D368
:10021000CB00C01A524183088B4201D38B00C01A15
:10022000524143088B4201D34B00C01A5241411A3C
:1002300000D20146524110467047FFE701B5002049
:1002400000F0F0F802BDC0460029F7D076E770470D
:1002500003460B437FD4002243088B4274D3030927
:100260008B425FD3030A8B4244D3030B8B4228D3C8
:10027000030C8B420DD3FF22090212BA030C8B42EE
:1002800002D31212090265D0030B8B4219D300E08E
:10029000090AC30B8B4201D3CB03C01A5241830B13
:1002A0008B4201D38B03C01A5241430B8B4201D3C3
:1002B0004B03C01A5241030B8B4201D30B03C01AEC
:1002C0005241C30A8B4201D3CB02C01A5241830A66
:1002D0008B4201D38B02C01A5241430A8B4201D395
:1002E0004B02C01A5241030A8B4201D30B02C01ABF
:1002F0005241CDD2C3098B4201D3CB01C01A524126
:1003000083098B4201D38B01C01A524143098B42AE
:1003100001D34B01C01A524103098B4201D30B0197
:10032000C01A5241C3088B4201D3CB00C01A5241BC
:1003300083088B4201D38B00C01A524143088B4281
:1003400001D34B00C01A5241411A00D2014652411A
:10035000104670475DE0CA0F00D04942031000D339
:100360004042534000229C4603098B422DD3030A8E
:100370008B4212D3FC22890112BA030A8B420CD39E
:10038000890192118B4208D3890192118B4204D3C7
:1003900089013AD0921100E08909C3098B4201D347
:1003A000CB01C01A524183098B4201D38B01C01A81
:1003B000524143098B4201D34B01C01A52410309F8
:1003C0008B4201D30B01C01A5241C3088B4201D3A7
:1003D000CB00C01A524183088B4201D38B00C01A54
:1003E0005241D9D243088B4201D34B00C01A52412B
:1003F000411A00D20146634652415B10104601D3B8
:100400004042002B00D54942704763465B1000D341
:10041000404201B5002000F005F802BD0029F8D0E7
:1004200016E770477047C04607B5064B019018683D
:10043000002800D104480A23012201A903F0C5F8CD
:1004400001980EBDA0B4002054030020044B0268A4
:1004500010B59A4202D1034801F04CFE10BDC046CF
:1004600000100040E400002030B5102593B0382281
:10047000002104A804F0BAFB2A000021684604F019
:10048000B5FB8020800001F03DFE0923049380230A
:100490005B020224059301230A931B190C9380230A
:1004A0009B020F9380239B041093802304A8DB05F9
:1004B0000B940D950E95119301F050FE002801D07C
:1004C00072B6FEE70723029003902100684600936E
:1004D000019402F0ABF8002801D072B6FEE713B029
:1004E00030BD000010B501F0DFF8FFF7BDFF00F0F0
:1004F000EDF800F023F900F073F900F0D1F900F005
:1005000005FA00F041F900F081F9164804F058FAB4
:10051000154802F02FFA00F071FF144803F0ACFB0D
:10052000041E05D02100124804F0E4F972B6FEE77B
:1005300003F0B2FE002811D1033000F089FF00283B
:1005400006D003F0DBFB011E02D00A4804F0D2F90A
:10055000094804F035FA00F0B1FFFCE7200003F091
:1005600081FEF5E768570008F4000020785E000877
:100570007457000891570008AA57000872B6FEE7A2
:10058000FEE7000010B5024804F01AFAFEE7C04684
:10059000B75700087047704710B501F099F810BDC3
:1005A00010B5024801F068FB10BDC0466002002093
:1005B00010B5034801F060FB024801F05DFB10BD7F
:1005C000000200204001002010B5024801F054FB59
:1005D00010BDC046A001002010B5024802F004FA88
:1005E00010BDC046F400002010B5024802F048FCDF
:1005F00010BDC0465403002010B5024802F040FC74
:1006000010BDC046C002002007B501210A4BC02022
:100610001A6CC0000A431A641A6C0A4080210092C6
:10062000009ADA6B49050A43DA63DB6B0B400193EE
:10063000019B01F071F807BD00100240704770B5D2
:100640000E0014000025A54201DB200070BD00E073
:1006500000BF70550135F6E770B50E001400002597
:10066000A54201DB200070BD705DFFF7DDFE0135A6
:10067000F6E701204042704780239B0100204B6039
:100680007047012070470020704700000B490C4A5A
:100690000300521A0B4910B50868002801D10A4816
:1006A00008600868C318934206D904F0F5FA0C23D1
:1006B00003600120404210BD0B60FCE70008000011
:1006C00000400220BC000020F8B7002070B588B0C0
:1006D0001422002103A804F089FA20210124802695
:1006E000144B154D5A6BB6000A435A635A6B2800D7
:1006F0000A400092009A5A6B183922435A635A6B87
:1007000022400192019A5A6B0A435A635B6B0022A2
:100710000B4002933100029B01F0B4FC002328003F
:10072000059303A9033303960494069301F0F2FBA7
:1007300008B070BD00100240000C005007B5012148
:10074000104B09209A6B0A439A6300229B6B0B4063
:1007500001931100019B00F0EBFF092001F012F85A
:1007600000220A20110000F0E3FF0A2001F00AF83D
:1007700000220B20110000F0DBFF0B2001F002F83B
:1007800007BDC046001002400848094B10B5036081
:1007900000238380436183610133036201F05AF8CF
:1007A000002801D0FFF7EAFE10BDC046C0000020BF
:1007B00000300240084B026882B09A4209D1802181
:1007C000064B49019A6B0A439A639B6B0B4001935A
:1007D000019B02B07047C04600300240001002404A
:1007E0000748084B10B5036003234360064BC36002
:1007F000836001F04DFC002801D0FFF7BFFE10BD63
:10080000E400002000300040B80B000030B585B097
:100810000C22002101A804F0E9F90F4C0F4B002530
:1008200023600F4B200063600E4BA560E3608023C4
:10083000A36102F0D5F9A84201D0FFF79FFE200086
:1008400001A90195039502F0F5F9002801D0FFF701
:1008500095FE05B030BDC046F400002000100040F9
:10086000FF180000E703000007B50B4B02689A422F
:1008700010D11021094B1120DA6B0A43DA630022F0
:10088000DB6B0B4001931100019B00F051FF112025
:1008900000F078FF07BDC046001000400010024085
:1008A00010B5184B184C0C222360E1235B026360E7
:1008B00000232000A360E36023616261A361E36120
:1008C00023626362A36202F04FFF002801D0FFF7AA
:1008D00055FE0021200003F01BF8002801D0FFF78F
:1008E0004DFE0021200003F033F8002801D0FFF76F
:1008F00045FE200002F0EEFF002801D0FFF73EFE8B
:1009000010BDC046003801405403002010B5184BFC
:10091000184C0C222360E1231B036360002320009A
:10092000A360E36023616261A361E36123626362A8
:10093000A36202F019FF002801D0FFF71FFE00217B
:10094000200002F0E5FF002801D0FFF717FE00218C
:10095000200002F0FDFF002801D0FFF70FFE20006D
:1009600002F0B8FF002801D0FFF708FE10BDC04616
:1009700000440040C002002070B5050094B014226D
:10098000002104A804F032F92C22002109A804F067
:100990002DF92B68654A934262D1012309A8099376
:1009A00001F002FF002801D0FFF7E8FD8021604B35
:1009B000C9011A6CA0200A431A641A6C00260A4066
:1009C0000092009A0122596BC005114359635B6B79
:1009D00004A913400193019BC023DB00049302236D
:1009E00005939B1807930696089201F093FA514CD1
:1009F000514B20002360322363604E33A660E660D3
:100A000023616661A661E661266201F013F8B042D7
:100A100001D0FFF7B3FD2B1DDC67A562474B484CA7
:100A20008022236033236360233BA36000232000E4
:100A3000E36022616361A361E361236200F0FAFF76
:100A4000002801D0FFF79AFD00221B201100EC675F
:100A5000A56200F06DFE1B2000F094FE14B070BD86
:100A6000384A9342FAD1022309A8099301F09CFE67
:100A7000002801D0FFF782FD80212D4B8902DA6B1F
:100A8000A0200A43DA63DA6B00260A400292029A37
:100A90000122596BC005114359635B6B04A91340D4
:100AA0000393039B0C2304930A3B05939B18079322
:100AB0000696089201F02EFA234C244B2000236066
:100AC000342363604C33236180239B01A660E6607E
:100AD0006661A661E661236200F0ACFFB04201D01E
:100AE000FFF74CFD2B1DDC67A562194B194C8022CA
:100AF000236035236360253BA3600023E3606361CB
:100B0000A361E361802320009B012261236200F046
:100B100091FF002801D0FFF731FD00221C201100B9
:100B2000EC67A56200F004FE1C2095E70038014048
:100B30000010024060020020080002401C00024039
:100B40000002002000440040A001002044000240B8
:100B500030000240400100200121134B70B5021EFD
:100B60001960124C1249134B1348144D13D10B60EA
:100B700020606A80124A2468012514600024114A0A
:100B80001470114A1560114A14600A689A4207D11C
:100B900002F0DEF870BD0022086023602A80E9E7D9
:100BA0008242F7D11800F3E74C04002050040020E3
:100BB0005404002054030020C002002058040020E8
:100BC000A0B400203D040020400400203804002090
:100BD00013B56B46DC1D432323700B4B1B68002BA6
:100BE0000CD1012221000948323302F0EEFC084802
:100BF00032230122210002F0E8FC03E0054B1868D3
:100C00000028F5D113BDC0464C0400205403002039
:100C1000C00200205404002007B56A460B00D11D15
:100C20000B70002803D03223012202F0CEFC07BD56
:100C300010B5034B15211868FFF7EEFF10BDC04635
:100C40005404002010B5034B06211868FFF7E4FF99
:100C500010BDC04654040020074B02001B68012051
:100C6000002B08D0054B06481B68002A00D0054819
:100C7000181A4342584170474C0400205404002085
:100C800054030020C002002070B580220024164BBF
:100C90002100920115481C805C8003F0A7FFFF2211
:100CA000134B21001C60134B13481C70134B1A701C
:100CB000134BC73A1C6003F099FF124B124D1C8076
:100CC000124B1C60124B1C60124B1C60124B1C70B0
:100CD000124B1C70124B1C702B68A34202D003F005
:100CE00083FA2C6070BDC046580400205C040020CC
:100CF000400400203D040020FE0300203C040020AE
:100D000038040020FC030020EC030020F80300203E
:100D1000F4030020F0030020EA030020E903002090
:100D2000E8030020802270B5120104000D0002F0DB
:100D300031FE002808D0200002F00AF880222900A5
:100D40002000120102F026FE70BD000000220D4BB3
:100D500070B51A600C4B0D4C1A600D4B20001C60D6
:100D60000C4B1C6001F0F4FF0B4D280001F0F0FF6C
:100D700020000A49FFF7D6FF28000949FFF7D2FFF4
:100D800070BDC0464C0400205404002054030020D1
:100D900050040020A0B40020C0020020A0AC00201D
:100DA000A0A4002070B5041E0FD000F09DFC4026CA
:100DB00005002368DB69334204D100F095FC401B39
:100DC0002828F6D90A2000F095FC70BD70B5041EE5
:100DD0000BD00825013D18212000EDB2FFF71CFFC4
:100DE000002DF7D12000FFF7DDFF70BD10B5024BDD
:100DF0001868FFF7EBFF10BD54040020144B0100EE
:100E000010B5180003F076FD124C2368002B03D0B8
:100E100003F0EAF9002323600024FFF735FF0E4BAF
:100E20000E4A1C600E4B1C600E4B1A6000F05CFCFE
:100E30000D4B18600D4B18600D4B1C700D4B1C704A
:100E40000D4B1C700D4B1C70FFF780FF10BDC04692
:100E5000C2570008EC0300204C040020540300207B
:100E600054040020A0B400204404002048040020C2
:100E70005E2400205F2400205D2400205C240020EC
:100E8000F0B5C24F95B002030090D719009BC04C3B
:100E90005D002B5B9C46002B1ED00023BD48FA5CF6
:100EA00099B2182A1AD80600D640320001263242DA
:100EB00014D0002918D1625B002A0DD0B64B1E68F1
:100EC000002E20D0009B002B17D1B449B44B0968E9
:100ED000994218D00023635315B0F0BD01339AB284
:100EE0009445DCD8013189B263465E1A320038007D
:100EF000791803F069FE6653DDE7009B012B02D1F0
:100F0000A649A84BE3E7397818291DD1013A93B2D5
:100F10000193A54B791C1B78002B05D0380003F0FA
:100F200053FE019B6353B1E7A04B38001E78013696
:100F3000F6B21E7003F048FE019B9D486353012EDC
:100F4000A4D9FFF75BFFA1E7984B01930023019819
:100F50000370042966D1551E2A003800791C03F05D
:100F600033FE009B5B00E5528F4B02931B7803938B
:100F7000002B00D08AE7002E00D187E7874C23683A
:100F8000002B00D182E78B4D2B68002B04D1FFF79B
:100F90004FFE01232B6079E7012B00DD76E702236A
:100FA0002B60FFF74FFE2068FFF7FCFEFFF710FEF7
:100FB0000F2000F09FFB00F0FDF90098FFF760FFA5
:100FC0004F212068FFF728FE2068FFF7EBFE019B0A
:100FD000039A1A700123029A137000F0EBF900983B
:100FE000FFF74EFF744C2368002B11D0734B1B6826
:100FF000002B0DD003F040F8011E0BD1704803F018
:10100000DFFC002003F02EF90023236002F076FEBF
:101010006C4896E76C4803F06DFC03F0E5F800239C
:101020002360F5E74B1E012B00D955E78023DB0039
:101030000293012901D180230293029B053303937C
:101040009A4200D248E77B7801930198BB78C31895
:10105000DBB2FF2B0ED0531E1A003800791C01930F
:1010600003F0B2FD019B6353002E00D10EE7FFF7A2
:10107000DFFD0BE7029BFC18E37820791B02184385
:10108000844600233800C5782D026B40082504955E
:101090001DB25B009BB2002D01DA4C4D6B40049DEC
:1010A000013D0495002DF3D101308442EBD19C45E4
:1010B0001AD0541E22003800791C03F085FD009AD6
:1010C000334B5200D452002E00D1DFE6FFF7B0FDC3
:1010D0003F4A13780133DBB21370142B00D8D5E6E6
:1010E000FFF784FE3B482CE7012921D1019B002B0F
:1010F0001ED1FB78002B1BD1304B1B68002B17D067
:101100002C4B1B68012B13DD002E02D10098FFF73A
:1011100023FDFFF797FD009B1D4C5E00355B039B95
:101120003800ED1A2A00F91803F04EFD3553ADE6EC
:10113000002E02D10098FFF70FFD274A019913787E
:101140008B4212D0254B1B788B42E2D0FFF770FD0B
:101150001F4A13780133DBB21370142BDBD9FFF76E
:1011600045FE1F48FFF74AFED5E700241D490E68DB
:10117000A64239D001231370184B019A0C601A70E3
:10118000FFF760FD124B1C70C5E7C0465C040020F1
:1011900058040020160000014C04002054040020D4
:1011A00054030020C0020020E9030020EA030020CD
:1011B000D357000838040020EC030020F803002077
:1011C000D757000800580008EC570008211000000D
:1011D000E8030020045800083D0400203C040020DF
:1011E0000858000840040020FB1C0593384B1B687E
:1011F000002B3ED1374B1D8838235C1B029BA4B2C9
:101200009B1BA34200DA9CB2334B2200E8180493E4
:10121000059B2D19991903F06CFD2E4BADB21D8065
:10122000372D20D93822049906A803F062FD06A8BC
:1012300002F0C2FD002803D01422284B1A7022E0CD
:101240000125274B382204991D6002F099FE0028E1
:10125000F2D138221E4B09991D60224B1A60089B5F
:10126000214A5B1813603619029BB6B2B342BDD84F
:1012700005E01D4B1B4A1B681068834207D2174CC0
:101280002378132B17D9FFF7B1FD18486AE71A1A0C
:101290008342F4D0029B9C1BA4B2A24200D294B21F
:1012A000059B2200991902F06BFE0028C4D10D4A5B
:1012B00013681B19D6E70E4B019A1A70019B0D4A51
:1012C00001331370FFF7BEFC0023237023E7C046F1
:1012D000F8030020FC030020FE030020E8030020A8
:1012E000EC030020F4030020F00300200C58000859
:1012F0003C0400203D040020F0B5224CA544224CC3
:10130000224B22781B789A4202D1214B9D44F0BD9A
:101310002278204953029B189B001F4AC91801A834
:1013200003F0E7FC0F2223780133134023706B4650
:101330001C792000FFF790FC0028E0D06B4680214C
:10134000164D6600DA88735B49019F188F420DD9EC
:10135000134B1868002803D11248002C00D1124802
:10136000FFF734FD1148FFF749FDC8E72003C01817
:101370000F4B02A9C01803F0BCFC20007753FFF705
:101380007FFDBCE7F4F7FFFF5E2400205F24002010
:101390000C0800006024002004080000580400200D
:1013A00054040020C00200205403002013580008F9
:1013B0005C04002010B50B4B1B78002B0FD00A4BA0
:1013C0001868002805D1094B09481B78002B00D16B
:1013D0000848FFF7FBFC0848FFF710FD10BDFFF7BA
:1013E0008BFFFBE75D240020540400205C240020D8
:1013F000C0020020540300201E5800080C4B0D4A68
:1014000010B51A60FFF740FC00230B4A13700B4A1B
:1014100013700B4A13700B4A137000F065F90A4BF6
:1014200018600A4B1860FFF791FCFFF7D1FB10BD65
:10143000A0B40020540300205F2400205E2400207C
:101440005D2400205C240020440400204804002087
:10145000F8B5041E16D00025FFF7BAFB00F044F9DA
:10146000124F386000F040F9060000F03DF9801B93
:1014700063280AD90135AC42EED100F035F90C4BA6
:101480003860186001204042F8BDFFF793FF094B18
:101490001868002808D1084A138852881343F3D1EA
:1014A000013000F027F9E0E70020EDE744040020D8
:1014B000480400204C0400205804002070B5FFF7B9
:1014C00079FF00F011F9164D04002B68C31AC72BE1
:1014D00006D9144B1B68002B01D1FFF779FB2C6058
:1014E000114B1B68E41A114B9C4218DD0D4B1B6815
:1014F000002B01D0FFF77AFC02F048FC00280BD04B
:101500000B4803F05DFABFF34F8F0A4B0A4ADA60CB
:10151000BFF34F8FC046FDE70848FFF76FFC70BD73
:10152000440400204C04002048040020B70B0000B5
:101530002858000800ED00E00400FA053C580008B7
:10154000F7B5324A0C00831A591E8B41DBB20500F5
:101550002F4E0093904200D12E4E80231B019C42BF
:1015600022D8002C16D0002301202B49F25C182A27
:1015700003D80F00D740074208D101339AB29442F2
:10158000F4D80098FFF768FB002808D000F0ACF80A
:10159000224B18600098FFF75FFB002806D131004E
:1015A0002800FFF7BFFB15E01C00DCE70F221C4FF3
:1015B0003B780133134001931A4B019A1B789A42EE
:1015C00009D1194B009A28001A700122174B1A7082
:1015D00001F0BEFBF7BD3978154B4A02521800994D
:1015E0009200D15439784A02521892009A185480C5
:1015F0003A7831005002801880000430C018220070
:1016000003F077FB019B3B70C9E7C0465403002001
:10161000A0A40020A0AC0020160000014804002077
:101620005F2400205E2400205C2400205D24002034
:10163000602400200F22036810B51A62034B04498E
:10164000984200D10349FFF76DFB10BD5403002001
:10165000A0A40020A0AC002070B5104B05001978A4
:10166000002901D1012070BDFA208000FEF766FD3F
:101670000B4C01002068FEF761FD00F08FF8041E9E
:10168000F0D1032DEED8020001202900404200F0E5
:101690004FF8044B20001D60E5E7C0460400002021
:1016A00000000020080000208023084A5B00116829
:1016B00010B50B4303201360FFF7CEFF041E03D1C8
:1016C000FEF7A2FF200010BD0124FBE7002002402E
:1016D000034A044B11681B785B1813607047C046BF
:1016E000A4B4002004000020014B18687047C046D5
:1016F000A4B4002070B50400FFF7F6FF0500631CDA
:1017000002D0044B1B78E418FFF7EEFF401BA04209
:10171000FAD370BD04000020034A044913680B404B
:10172000034313607047C04600000140FFF9FFFF0C
:1017300010B5FF2403220B0021000240D20091408B
:101740009B012340C943934000280ADBC0240B4A75
:10175000800880008018A40002590A4013430351F6
:1017600010BD0F2210400838054A800880008018FC
:10177000C26911401943C161F2E7C04600E100E0CF
:1017800000ED00E0002805DB1F2318401E3B8340CE
:10179000014A13607047C04600E100E08022431E0A
:1017A0005204012093420DD2C021074A07485360DA
:1017B000036A09061B021B0A0B430362002007236E
:1017C000906013607047C04610E000E000ED00E05C
:1017D0000B00F7B59608B600741805680194019CD3
:1017E000A3420BD1032714003C403A4203D0895D49
:1017F000012C10D1297003681868FEBD1C785F7831
:1018000024063F043C43DF783C439F7804333F0287
:101810003C432C60E3E75A7809020A432A80022CF1
:10182000E9D09B782B70E6E7F0B50D000026006844
:101830005408B44206D1D20702D5A400635A0380EB
:101840000068F0BD2B886F881B043B4303600136A2
:101850000435EEE710B5041E01D1012010BD437F11
:10186000DAB2002B02D10277FEF7A4FF02236377DE
:101870002379002B1CD118212368124A5A619A68D7
:101880008A439A6062792368002A19D1013A60215B
:101890001A619A6800208A4361690A4380219A602C
:1018A0009A688A43A1690A439A6001236377D5E75E
:1018B0002000E268A16800F04BF80028E2D0CCE7F5
:1018C0002269E4E7B71DC104022310B54377036A18
:1018D0000400022B14D0032B06D00020012B09D1C9
:1018E0002000FFF775FF05E0920003688A18914217
:1018F00003D118680123637710BD01C91860F6E7AA
:10190000FFF792FFF6E7022370B543770400036800
:1019100001209D6828439860206A022814D003287B
:1019200005D001280CD000200123637770BD920000
:101930008A18914201D11868F6E701C91860F8E7E2
:101940002000FFF745FFEFE72000FFF76DFFEBE713
:1019500030B501250400280029420FD01F23013B88
:1019600022D30800D8402842F9D0102A15D0102AD6
:1019700005D8002A08D00120082A12D030BD012045
:10198000182AFBD1062BF9D82068416118218368F9
:101990008B43134383600020F0E70120072BF3D92A
:1019A000ECE70F2BEAD8EFE70120102ADFD1E5E7BB
:1019B00070B5C46C056D6560446D002C02D0846DFB
:1019C000C56D65601C24456C066C25401B3CAC4015
:1019D0007460046863608368102B02D1A260E160C8
:1019E00070BDA160E260FBE770B50668446C05005D
:1019F000F0B214210838FEF7A1FB0A4BA408A4009A
:101A00009E420AD8084BE418084BAC64EB641F23D1
:101A100018401E3B83402B6570BD054B0730E41812
:101A2000F2E7C04607040240000802408008024076
:101A30001C080240F8B504000120002C4BD025689A
:101A40002B4B14219D4247D82A4BE818FEF776FB12
:101A5000294B800023640223A61D6064F3772B6862
:101A6000264AA76813402B60E36821693B430B4378
:101A700061692A680B43A16920000B43E1690B43AC
:101A8000216A0B4313432B60FFF7AEFF8023DB017A
:101A90009F4201D1002363607F236268A16C1340E1
:101AA0000B60206DE16C013A4860032A1BD8144A90
:101AB000144899180122013B9A40E2651300002264
:101AC00089006165A0650A60436000200123E0632E
:101AD0000534F377E077F8BD0B4BE818FEF72EFBE3
:101AE0000A4B8000B6E700236365A365E365ECE776
:101AF00007040240F8FFFDBF000002400F80FFFF17
:101B00003F82001040090240F8FBFDBF0004024084
:101B1000F7B5451D0193EE7F04000220012E33D05E
:101B20000138E877A71DFE7FB4466346F6B20096FB
:101B30000026834230D10130F8772568E6632868B3
:101B4000009B98432860019B2000FFF731FF236B27
:101B5000B3421AD00E232A6813432B60A36C1A6871
:101B6000D20304D58022196852000A431A60636DBB
:101B7000002B04D08022196852000A431A60012306
:101B800000202A6813432B60FEBD04222B68934378
:101B90002B602A680A23DFE78023E363EE77F3E70D
:101BA000F0B5002808D0841DE37F411D022B05D02D
:101BB0000423C3630023CB770120F0BD0E25026808
:101BC000866C13681C27AB43136033680E4D2B40A3
:101BD0003360012316689E431660426C066C3A40DF
:101BE0009340026D7360C36C5A60436D002B05D047
:101BF0001A682A401A60836DC26D5A600123002062
:101C0000E377C877D9E7C046FFFEFFFF70B5811DB7
:101C1000CB7F022B03D00423C363012070BD0E24AD
:101C200002681C261368856CA343136001231468A3
:101C30009C4314602A680F4C22402A60426C056C59
:101C400032409340026D6B60C36C5A60436D002B51
:101C500005D01A6822401A60836DC26D5A60012354
:101C60000022CB77431DDA77836B934200D09847ED
:101C70000020D3E7FFFEFFFFF8B51C260427426CC7
:101C8000016C32403E0096400D6803681C68354286
:101C90000DD03C420BD01A68920602D41A68BA439F
:101CA0001A60036B4E60002B1DD098471BE0022783
:101CB0003E009640354219D03C4217D01A68920631
:101CC00006D40A211A688A431A600939821DD1771D
:101CD000124A934208D9124B00225E60431DDA7704
:101CE000C36A9342E1D1F8BD0E4BF5E708263700F1
:101CF00097403D42F7D03442F5D00E251C68AC43E6
:101D00001C6001231C009440821D4C60C363D37788
:101D10000022431DDA77436BE3E7C04680000240B0
:101D20000004024000000240C06B70470020054BD9
:101D30005A69824205DA044A9A60044A9A605869EC
:101D4000C00F70470020024023016745AB89EFCDEB
:101D5000F8B50400FFF7C8FCC0270600BF02144D09
:101D60002B693B4216D12A69124B110012481940C7
:101D700028611A4217D18027FF022B6918003840CA
:101D80003B420FD0631CF8D0FFF7AEFC801BA04293
:101D9000F3D306E0631CE3D0FFF7A6FC801BA04250
:101DA000DDD30320F8BD054B01205960FAE7C0469A
:101DB00000200240FA830000FB830800A8B4002042
:101DC000F7B5174E0193337804000D0002200092FE
:101DD000012B1ED00123FA20337000238000736092
:101DE000FFF7B6FF002812D10E4F012C12D17B69EC
:101DF00023437B61009B2B60BFF36F8F019B6B6064
:101E0000FA208000FFF7A4FF7B69A3437B610023D6
:101E10003370FEBD2800009903F09EFCF0E7C04639
:101E2000A8B4002000200240FA2010B58000FFF77F
:101E30008FFF8022044B120659690A435A61586980
:101E4000C043C00F10BDC04600200240084A53697D
:101E500004280AD007480340802080010343C900BA
:101E60001943054B0B435361704704480340F6E7A1
:101E70000020024007E0FFFF0200010007C0FFFF53
:101E8000F7B5224F05003B7802240191012B1BD0AE
:101E90000123FA203B70002380007B60FFF758FF8E
:101EA000041E0FD12B68042B10D119496B684A69A5
:101EB000FA201A4380235B0213434B618000FFF733
:101EC00047FF040000233B702000FEBD0123019A60
:101ED0005B421360AE68AB68EA689B18B3420CD9EA
:101EE00068683100FFF7B2FFFA208000FFF730FF8B
:101EF000002808D00400019B1E600221044A536997
:101F00008B435361DEE70136E5E7C046A8B4002005
:101F1000002002400023F0B585B00A681400DC40C0
:101F200001D105B0F0BD012514009D402C40009466
:101F30002A4200D195E04A685F0094460322644635
:101F400022400324BC40E4430194541E012C2ED8AB
:101F50008668019C2640CC68BC4034438460446859
:101F60000126AC4325006446240934409C402C43A0
:101F70004460C568019C25408C68BC402C43C4600B
:101F8000022A16D107250F261D40AD00AE40DC0801
:101F9000A40004190294246A03962600039CA64315
:101FA00034000E69AE402643029C266201E0032AFB
:101FB000DFD1BA400468019D25402A43C024026055
:101FC0006246A40222424CD0274A03259C08A40062
:101FD000A4180F221D40ED00AA40A027266EFF0581
:101FE00096430022B84210D0204F0132B8420CD0A4
:101FF0001F4F0132B84208D01E4F0132B84204D000
:102000001D4A8218571EBA410432AA40674632431D
:102010002266154C009A2668009DD2433543FF0284
:1020200001D435001540674625606668009D35433C
:10203000BF0201D435001540674665600F4C009D16
:10204000E66F3543BF0301D4350015406746E567A9
:102050000B4C009EE56F2E43FF0301D415402E006C
:10206000E667013359E7C0460018024000040050FB
:1020700000080050000C005000F0FFAF08180240AC
:1020800004180240002A01D0816170478162FCE798
:1020900070B504000120002C16D02368124A0726D0
:1020A0001A60124A1A6062685A60A2689A60FFF762
:1020B0001BFB05002368DA68324206D11969E26821
:1020C00091420DD01A61002070BDFFF70DFB401B3F
:1020D0003128EFD92368DB683342EBD00320F3E7E4
:1020E000034A1A60EFE7C046CCCC0000555500000B
:1020F000AAAA00000368024A00201A607047C0467E
:10210000AAAA000010B5114C1149236802000B4027
:1021100003432360802300209B009A420ED10D4B85
:102120000D49186806235843FEF708F88022431C1F
:10213000D200616908001040114200D110BD002B8F
:1021400001D0013BF5E70320F8E7C04600700040EE
:10215000FFF9FFFF0000002040420F00F0B504002F
:1021600085B0002802D1012005B0F0BD0368DB076F
:1021700010D423689B075CD423681B0700D5C1E0FB
:1021800023685B0700D5F2E0E369002B00D079E11A
:102190000020E9E73822AF4DAB681340EA68102B06
:1021A00009D1D3439B0708D12B689B03E1D5636812
:1021B000002BDED1D7E7082BF6D0802263685202CD
:1021C000934211D12A6813432B60FFF78DFA8027C1
:1021D0000600BF022B683B42CBD1FFF785FA801B7C
:1021E0006428F7D90320BFE7A021C9028B4208D198
:1021F00080232968DB020B432B602B681A432A607B
:10220000E3E72A6894490A402A602A6893490A4009
:102210002A60002BD9D1FFF767FA80270600BF029A
:102220002B683B42A5D0FFF75FFA801B6428F7D9E3
:10223000D8E73822874DAB681340EA68102B28D1C5
:1022400003210A40022A26D12A68520503D5E268F2
:10225000002A00D187E7696862698148120201405B
:102260000A436A60002B0CD12B687E4A7E491340DA
:10227000226913432B602B687C4A9B045B0FDA4076
:102280000A607B4B1868FFF7E7F9002800D173E775
:1022900069E7002BD8D0E368002B20D02B68714A67
:1022A000802713402269FF0013432B6080232A6894
:1022B0005B0013432B60FFF717FA06002B683B42C5
:1022C00007D06A68636966491B020A4013436B6062
:1022D00052E7FFF709FA801B0228EFD982E72B6843
:1022E000644A802713402B60FFF7FEF90600FF00C9
:1022F0002B683B4200D13FE7FFF7F6F9801B02282D
:10230000F6D96FE73822534DAB681340182B08D12C
:102310002B6E9B0700D433E7A369002B00D02FE777
:1023200021E7A2690123002A10D02A6E0227134355
:102330002B66FFF7D9F906002B6E3B4200D01FE752
:10234000FFF7D2F9801B0228F6D94BE72A6E022745
:102350009A432A66FFF7C8F906002B6E3B4200D16C
:102360000EE7FFF7C1F9801B0228F6D93AE73822B9
:10237000384DAB681340202B08D1EB6D9B0700D480
:1023800002E7A368002B00D0FEE6ECE680220021E5
:10239000EB6B52050091134208D1EB6B1343EB63D7
:1023A000EB6B13400393039B012300938027324E72
:1023B0007F0033683B4215D0A368012B22D1EA6D20
:1023C0001343EB65FFF790F902270600EB6D3B42E4
:1023D00038D0009B012B00D0D6E6EB6B274A134088
:1023E000EB63D1E633683B433360FFF77DF901903F
:1023F00033683B42E0D1FFF777F9019BC01A02280E
:10240000F6D9EFE6EA6D052B05D1013B1343EB65E9
:10241000EA6D0123D4E701218A43EA65EA6D0331BD
:102420008A43EA65002BCDD1FFF75EF9022706004B
:10243000EB6D3B42CDD0FFF757F9114B801B984213
:10244000F6D9CFE6FFF750F90D4B801B9842BDD966
:10245000C8E6C04600100240FFFFFEFFFFFFFBFF83
:10246000FF80FFFFFFC7FFFF000000200024F400F3
:1024700008000020FFFEFFFF00700040FFFFFFEF9D
:10248000881300003821434DAA680A40102A53D00F
:10249000414A022B3AD12B68802713402B60FFF76B
:1024A00023F90600BF042B683B4229D1616A236AE5
:1024B000EA680B43394980260A401343E26AB604AE
:1024C0001343226B1343626B1343A26A120213433A
:1024D000EB6080232A685B0413432B608023EA6847
:1024E0005B051343EB60FFF7FFF804002B683342F2
:1024F00000D04DE6FFF7F8F8001B0228F6D971E688
:10250000FFF7F2F8801B0228CDD96BE62B688026F6
:1025100013402B60FFF7E8F80400B6042B68334241
:1025200004D1EB681E4A1340EB6031E6FFF7DCF89C
:10253000001B0228F2D955E6012B00D113E6032235
:10254000E868216A02408A4200D00CE67022616A83
:1025500002408A4200D006E6FE21A26AC90101407B
:102560001202914200D0FEE5F822E16A9203024095
:102570008A4200D0F7E5E022216B120502408A4230
:1025800000D0F0E5636B400F4007C01A431E98412E
:10259000C0B2E9E500100240FFFFFFFE8C80C111D0
:1025A000FCFFFEEE382370B51D4CA2681A4205D11F
:1025B00023681C489B045B0FD84070BDA2681A407A
:1025C000082A27D0A2681A40102A17D1E368E168C8
:1025D000DB43E5684906490F6F322D0A013115408A
:1025E0009B0709D11048FDF7A9FDE1686843490F31
:1025F0000131FDF7A3FDE0E70A48F4E7A2681A40BD
:10260000202A09D0A26800201340182BD5D1FA2027
:10261000C001D2E70448D0E780200002CDE7C046E1
:10262000001002400024F40000366E01F7B50400EB
:102630000D00002801D10120FEBD0727484E336858
:102640003B408B422AD3226893073BD4D20748D41D
:10265000072733683B40AB420AD93368BB432B435F
:102660003360FFF741F8019033683B40AB4268D1DB
:1026700023683C4D5B076CD4FFF794FFAB683A4985
:102680001B051B0F9B005B581F210B40D840374A8E
:10269000374B10601868FEF7DFFFCDE73368BB43A8
:1026A0000B433360FFF720F8019033683B40AB42A7
:1026B000C9D0FFF719F8019BC01A2E4B9842F4D9E4
:1026C0000320B9E72749530704D5E0238868DB01D5
:1026D00003438B608B6828480340A06803438B60EA
:1026E000B4E760681F4F032829D8FDF713FD2002C7
:1026F0001C243B689B039ED50722BB68934303437E
:10270000BB60FEF7F1FF01903823BA681A40636896
:10271000DB009A429CD0FEF7E7FF019BC01A154BE5
:102720009842F1D9CCE73B689B01E5D483E73B684D
:102730005B05E1D47FE73B6E9B07DDD47BE7FB6D58
:10274000FAE7FEF7D1FF019BC01A0A4B98428BD9DA
:10275000B6E7AB68094A1340E2681343AB608BE706
:102760000020024000100240F45D0008000000203C
:102770000800002088130000FFF0FFFFFF8FFFFF1D
:10278000064B07499B68074A5B045B0F9B005B583D
:102790001F2110680B40D8407047C046001002400F
:1027A000D45D000800000020F0B50368050085B086
:1027B00000209B0352D58022664C5205E36B0090AB
:1027C000134208D1E36B1343E363E36B13400393BA
:1027D000039B0123009380275F4E7F0033683B43B8
:1027E0003360FEF781FF019033683B4228D0E26DF1
:1027F000C02310009B00696A584E18401A4218D036
:10280000814216D08022E36DE06D1900520202432E
:10281000E265E26D524831400240E265E165DB0766
:1028200007D5FEF761FF07000222E36D134200D1D6
:1028300088E0E36D6A6A334013430020E36506E0F5
:10284000FEF752FF019BC01A0228CDD90320009B3E
:10285000012B03D1E36B434A1340E3632B68DA0790
:1028600006D503243B494A6DA2436C6822434A655E
:102870009A0706D50C2437494A6DA243AC68224317
:102880004A655A0706D5302432494A6DA243EC689E
:1028900022434A659A0606D52E49334C4A6D22409A
:1028A0002C6922434A655A0606D52A492F4C4A6D9F
:1028B00022406C6922434A655A040FD525492C6A87
:1028C0004A6D9200920822434A658022D2059442C2
:1028D00004D18022CC6852022243CA601A050DD569
:1028E00003261C49AC698A6DB24322438A65012CD8
:1028F00004D18022CC6852022243CA609A040DD5CA
:102900000C261449EC698A6DB24322438A65042C73
:1029100004D18022CC6852022243CA60802149043B
:102920000B420DD00B4AAC6A936D0F4D2B402343E5
:10293000936580239B019C4202D1D3681943D160E7
:1029400005B0F0BDFEF7D0FE094BC01B984200D881
:102950006AE77BE70010024000700040FFFCFFFFC9
:10296000FFFFFEFFFFFFFFEFFFCFFFFFFF3FFFFF78
:102970008813000001000300012010B53D310C78E0
:10298000E2B284421ED1001808701B68D968114356
:10299000D9600E498B4208D00D498B4205D00D49B4
:1029A0008B4202D00C498B420DD19A680B490A40E8
:1029B000062A06D007398A4203D0012219680A4341
:1029C0001A60002010BD1968F9E7C046002C0140CC
:1029D00000040040000800400040014007000100E2
:1029E00070477047704770470222036870B5DD6812
:1029F0001E69040016420DD015420BD0053A1A612B
:102A0000043202779B699B0700D17CE0FFF7E9FF66
:102A10000023237704231E4212D01D4210D005222A
:102A2000236852421A61073222779A69C0239B00B9
:102A300020001A4200D16CE0FFF7D3FF0023237778
:102A400008231E420FD01D420DD009222368524296
:102A50001A610D322277DB6920009B075FD0FFF7F8
:102A6000C0FF0023237710231E4211D01D420FD038
:102A70001122236852421A6119322277DA69C0237F
:102A80009B0020001A4250D0FFF7ABFF00232377B2
:102A900001231E4208D01D4206D002222368524262
:102AA00020001A61FDF7D2FC82239B011E4207D051
:102AB0002B0605D52368204A20001A6100F0F5F89E
:102AC000F30507D52B0605D523681C4A20001A619B
:102AD00000F0ECF840231E4208D01D4206D04122EF
:102AE0002368524220001A61FFF77DFF20231E4217
:102AF00008D01D4206D021222368524220001A61CC
:102B000000F0D2F870BDFFF76BFF2000FFF76AFFFF
:102B10007EE7FFF765FF2000FFF764FF8EE7FFF712
:102B20005FFF2000FFF75EFF9BE7FFF759FF2000E4
:102B3000FFF758FFAAE7C0467FDFFFFFFFFEFFFF5A
:102B400010B51F4C0368A04205D01E4A904202D027
:102B50001D4A904208D1702293434A6813431B4A8E
:102B60001A40CB6813430BE0194A9042F7D0194A38
:102B70009042F4D0184A9042F1D0184A9042EED0D8
:102B8000802293434A69134303608B68C3620B68D6
:102B90008362A04208D00F4B984205D00E4B98425A
:102BA00002D00E4B984201D10B69036301224261AE
:102BB0000369134202D003699343036110BDC04609
:102BC000002C01400004004000080040FFFCFFFF13
:102BD0000020004000400140004401400048014006
:102BE00070B504000120002C23D025003D352B7842
:102BF000DAB2002B05D123003C3320001A70FDF718
:102C000033FE02232B702068211DFFF799FF22005D
:102C1000012300204832137047340A3A137053706E
:102C20009370D370137153719371D37113722370B6
:102C30002B7070BDF0B5040002223C3425780300EF
:102C40001000012D25D01D003D352A701B68114E46
:102C50005A689868B34203D10F4F3A404F683A43DD
:102C60007027BA430F683A435A60B34208D00B4A00
:102C7000934205D00A4A934202D00A4A934204D1B1
:102C8000802290438A6810439860012300202B70B3
:102C90002070F0BD002C0140FFFF0FFF000400403A
:102CA0000008004000400140704770477047000036
:102CB00030B5EFF31084012282F31088C02501683B
:102CC0000B68AB430B6084F31088EFF3108182F341
:102CD00010880268044C93682340936081F3108845
:102CE00020238830036030BDFFFF7FFF30B5EFF356
:102CF0001084012282F310880168134D0B682B4069
:102D00000B6084F31088EFF3108182F3108802685F
:102D10000E4C93682340936081F31088C36E012B9F
:102D20000AD1EFF3108183F310881024026813682E
:102D3000A343136081F31088030020228C331A60B0
:102D40000023C366436730BDDFFEFFFFFEFFFFEFDA
:102D500070B50400EFF31080012282F3108821681F
:102D6000294D0B682B400B6080F31088EFF3108126
:102D700082F310882268254893680340936081F3AA
:102D80001088E36E012B0AD1EFF3108183F31088D2
:102D90001020226813688343136081F31088402158
:102DA00023689B680B421ED0EFF31080012383F34E
:102DB0001088250004CD93688B43936080F31088BE
:102DC000E86F00280FD000238363FEF7E9FE002898
:102DD00009D0E86FFEF7A8FF202804D11023903413
:102DE00023601D3870BD230000200F225E33188041
:102DF00023681A629969073A0A439A6123002022DC
:102E00008C331A60E066EDE7DFFEFFFFFEFFFFEFA9
:102E100070477047704770B5846A230088331A681A
:102E20005D6823689B681B0608D5212A06D123000C
:102E30000022563320001A80FFF73AFF23689B6870
:102E40005B0608D5222D06D1230000225E33200028
:102E50001A80FFF74BFF22001023903211682000E8
:102E60000B431360FEF7E6FB70BD806A002302008F
:102E700010B55E321380083A1380FEF7DBFB10BDFD
:102E8000F7B50168C14DCB6904000A6888682B4218
:102E900010D120252B4200D19BE0802676051540DD
:102EA0000640354300D194E0636F2000002B00D032
:102EB00085E085E0B64D05400095B64D009E154075
:102EC000354300D185E0250001269035334205D0F9
:102ED000D70503D50E622F683E432E60022633428B
:102EE0000CD0C7070AD527000E6290373E680197BD
:102EF000B446042667463E43019F3E6004263342A3
:102F00000CD0C7070AD527000E6290373E6801979C
:102F1000B446022667463E43019F3E600826B446FB
:102F2000334209D02027009E1740374304D066461D
:102F30000E622F683E432E6080263601334206D053
:102F4000570104D50E6220212E683143296029687B
:102F5000002935D020210B420AD080235B05114087
:102F60000340194304D0636F002B01D02000984721
:102F700022682B684027966828223E401340200094
:102F80001E4322D0FFF7B2FE23689B683B4218D055
:102F9000EFF31081012383F31088250004CD93689B
:102FA000BB43936081F31088E86F002809D07A4B07
:102FB0008363FEF72BFE002802D0E86F836B9847EF
:102FC000F7BD2000FEF736FBFAE7FEF733FB2E6075
:102FD000F6E7E56E012D00D09FE01026334200D1C8
:102FE0009BE0324200D198E00E62896840230A00DB
:102FF0001A40194257D0211DCA6F1068426892B218
:10300000002ADDD027005C373F889742D8D92700B7
:103010005E373A8002682020844610400090604667
:10302000024232D1EFF3108785F3108820685B4E9F
:1030300002683240026087F31088EFF3108785F34F
:10304000108820688268AA43826087F31088EFF3B3
:10305000108785F31088206882689A43826087F31E
:103060001088230062468C331A60009BE366EFF3FE
:10307000108085F3108822680F351368AB43136006
:1030800080F31088C86FFEF78BFD022322002367B0
:1030900023005C325E331B881188C91A89B2200074
:1030A000FEF74EFA8CE7230020005C335E3019886F
:1030B000038800889BB2002800D181E7C91A89B231
:1030C000002900D17CE7EFF3108785F31088206892
:1030D000334E03683340036087F31088EFF31087A3
:1030E00085F3108820682F4E83683340836087F310
:1030F0001088230020208C331860E2666267EFF3AB
:10310000108085F31088102522681368AB43136084
:1031100080F3108802232367C1E780256D032B42CB
:1031200006D0460204D520000D6200F0CFFB47E731
:1031300080210B4207D080252D04114028400143F7
:1031400001D0A36FB1E640210B4216D00A4214D041
:10315000EFF31080012383F31088226813688B43F8
:10316000136080F310882300202288331A60002324
:103170002000A367FFF74CFE22E7190214D5510087
:1031800012D5200000F0A4FB1AE7C0460F0800008B
:1031900001000010200100046B2E0008FFFEFFFF5D
:1031A000DFFEFFFFFEFFFFEFDB0100D408E7002A90
:1031B00000DB05E7200000F08AFB01E70123806ABD
:1031C00010B50367C36E012B06D103005C33198869
:1031D0004908FEF7B5F910BDFFF71CFEFBE700003C
:1031E00003001B6820221B6870B51900806A11401B
:1031F000134234D103005E331980EFF310850123AD
:1032000083F3108804681D4E21683140216085F3E6
:103210001088EFF3108583F310880468A168994340
:10322000A16085F31088EFF3108483F310884025A4
:1032300001688B68AB438B6084F3108803008C3388
:103240001A60C36E012B0AD1EFF3108183F310884B
:10325000102402681368A343136081F310880023CD
:103260000367C36E012B05D103005C331988FEF799
:1032700067F970BDFFF7CDFDFBE7C046FFFEFFFF1E
:1032800070B504002569A168036829436569C269AE
:1032900029431868664D1143284001431960596855
:1032A0006448256A0140E06801435960A169986853
:1032B0002943614D284001430F209960D96A814319
:1032C000606A0143D9625D498B4215D103215C4B91
:1032D0005B6D0B40022B00D19AE08B4236D0012B64
:1032E00017D080231B029A4200D19AE0FFF748FAD8
:1032F000002800D199E073E052498B421AD10C2189
:103300004F4B5B6D0B40082B00D181E009D8002B9F
:10331000E7D080231B029A4200D076E0FFF742F903
:1033200081E00C2B12D00120474BA366002363677A
:10333000A36770BD45498B420DD13021404B5B6D79
:103340000B40202B64D0E2D9302BECD1802000023E
:10335000824245D118E080213D48090283425DD078
:103360003C4883425AD03C481B18581E83411801E0
:103370008A4226D10828D6D8FCF7C2FE53D505D5F7
:10338000D0D5D5D50600354A616A354B49001000C5
:10339000C95AFCF7D3FE656840006B08C0182900C5
:1033A000FCF7CCFE02002F4B103A9A42BBD80F23F9
:1033B000020000079A4393B2400F22680343D36090
:1033C00033E00828AFD8FCF7AFFE91FFAEFF27002F
:1033D000AEFF2000AEFFAEFFAEFF0900802000026E
:1033E000626A1F4B5200D15AFCF7A8FE65686B0851
:1033F000C0182900FCF7A2FE02001A4B103A9A42AC
:1034000000D990E72368D8600FE0FFF7CBF86FE7AB
:1034100080231B029A42B6D01048E1E78A4200D0CE
:1034200064E7FFF7ADF9021EAED100207CE7C0468D
:10343000F369FFCFFFCFFFFFFFF4FF11003801401A
:10344000001002400044004001000100004800401C
:10345000004C00400050004000C4FEBF0024F400B7
:10346000345E0008EFFF0000836A30B51A0706D506
:103470000168284C4A682240846B22434A60DA077C
:1034800006D50168244C4A682240C46A22434A6037
:103490009A0706D50168214C4A682240046B2243F2
:1034A0004A605A0706D501681D4C4A682240446BA1
:1034B00022434A60DA0606D501681A4C8A6822401F
:1034C000C46B22438A609A0606D50168164C8A6846
:1034D0002240046C22438A605A0610D50168134DBD
:1034E0004A68446C2A4022434A6080225203944234
:1034F00005D14A680E4C2240846C22434A601B0668
:1035000006D502680B4953680B40C16C0B435360EE
:1035100030BDC046FF7FFFFFFFFFFDFFFFFFFEFF47
:10352000FFFFFBFFFFEFFFFFFFDFFFFFFFFFEFFFEF
:10353000FFFF9FFFFFFFF7FFF7B504000D00170027
:1035400000932268D3692B405B1B59424B41BB421D
:1035500001D0002026E0089B0133F3D0FEF7C4F829
:10356000009BC01A089B98422DD8002B2BD02368B3
:103570001A685207E5D52A004021403A8A43E0D034
:10358000DA69082611003140019132420BD0200047
:103590001E62FFF7ABFB230090331E600023012067
:1035A00084342370FEBD8022D96912011142C8D033
:1035B0001A622000FFF79AFB2300202290331A6042
:1035C000019B843423700320ECE7F0B51700020060
:1035D00087B088320593136804000D000220202B69
:1035E00039D10138002936D0002F34D08023A1688A
:1035F0005B01994204D12369002B01D105422AD1F4
:103600002300002690331E6021231360FEF76CF820
:10361000230054331F80023303931F808023A2684A
:1036200004905B019A4204D12369B34201D12E0078
:103630001D00230056331B889AB2002B0DD1059B29
:10364000200000934021049BFFF776FF202388345D
:10365000236000280ED107B0F0BD059B0022009327
:1036600080212000049BFFF767FF002804D020235F
:10367000883423600320EEE72268002D0BD13388C5
:103680000236DB05DB0D9362039B039A1B88013B2B
:103690009BB21380CDE72B7801359362F4E70000ED
:1036A000030073B50026040090331E60FEF71CF87B
:1036B000236805001B681B071FD58021284B32009B
:1036C0000093890303002000FFF736FFB04214D0B7
:1036D000EFF31081012383F31088802022681368A0
:1036E0008343136081F310882300202288331A60FB
:1036F000032000238434237076BD260023688C3693
:103700001B685B0723D58021154B00220093200006
:103710002B00C903FFF710FF002818D0EFF310802B
:10372000012282F3108821680E4D0B682B400B603C
:1037300080F31088EFF3108082F3108821688B6883
:1037400093438B6080F3108820233360D0E72300FD
:103750002022002088331A603260E0662067C8E7C4
:10376000FFFFFF01DFFEFFFF70B5041E01D1012046
:1037700070BD050088352B68002B04D1020084320F
:103780001370FDF7F9F82423012122682B601368D8
:103790008B431360A36A002B02D02000FFF764FE66
:1037A0002000FFF76DFD0128E1D0236807495A6822
:1037B00020000A402A215A609A688A439A600122AE
:1037C00019680A431A60FFF76BFFD1E7FFB7FFFFE5
:1037D000F8B513000200060005005C3281650F0099
:1037E00013802221002290368C3532602960011D21
:1037F0000400C86F904213D01D498263C1621D4905
:103800003A0001631C49416321682431FEF780F9C5
:10381000002805D0102301203360DB182B60F8BD91
:103820002369002B0BD0EFF31081012383F3108861
:103830002268FF3310680343136081F31088EFF3AD
:103840001080012383F3108821688A681A438A60F4
:1038500080F31088EFF3108183F3108822683F33E0
:1038600090680343936081F310880020D7E7C04637
:10387000E1310008BD310008172E0008F7B5070038
:10388000436E04006A37002B04D10120388068346D
:103890002080F7BD03680B4E9A689B680A4D5B0F4A
:1038A000F05CE95CC0000192FCF7D2FC019B38801F
:1038B0001B015B0FF05CE95CC000FCF7C9FC80B247
:1038C000E5E7C046545E00084C5E0008704770474C
:1038D0007047000070B50400843422780300022091
:1038E000012A11D01D002422012688352A601A6879
:1038F00011681068B0431060044801400020586609
:10390000202311602B60207070BDC046FFFFFFDFD9
:10391000F8B5050084350B0029780222012915D05D
:103920000600012104688836223232602768226846
:103930008A432260A168C900C9081943A160FFF742
:103940009DFF20230022276033602A701000F8BDFD
:10395000F8B5050084350A0029780223012915D01D
:103960000600012104688836223333602768236803
:103970008B432360A168064B19401143A160FFF7F8
:103980007DFF20232760336000232B701800F8BDD3
:10399000FFFFFFF103008C331B6870B504000220A9
:1039A000202B02D1002901D1012070BD002AFBD0BB
:1039B0008020A56801234001854204D120690028A8
:1039C00001D11942F0D1E366002320002367FFF7FD
:1039D000FFFE0028E9D1E26E012AE5D1102321681B
:1039E0000B62EFF3108182F310882268146823437E
:1039F000136081F31088D8E710B50A00002101F0A8
:103A0000F5F810BD70B51F4B05001B6888B0002B82
:103A100035D01A2101A8FFF7EFFF1B4E1A23F46AD5
:103A20003078716801AAA047041E0AD01A221749EB
:103A3000280001F05EF9164800F0C2FF0524644238
:103A40001AE0144B019A9A4206D01A2228000F4914
:103A500001F04FF90624F2E71622B36B01A998474B
:103A60006B465A8B9B8B1B0413438342EDD11A2266
:103A7000280001A901F03DF9200008B070BD022422
:103A8000DDE7C04654B6002058B600205C5E000852
:103A9000445800084F5441540300F7B50833154FFC
:103AA0009B00DC59050000910192002C1FD02100E1
:103AB0000098FCF743FB604306000198009B013827
:103AC000C01800192100801BFCF738FB444331006B
:103AD000220028007B6B9847002807D02300320083
:103AE0002900054800F006FF04204042FEBD0120E9
:103AF000FBE7C04658B600206D580008F7B5C279FC
:103B0000837912021A43037A467A364F1B04134311
:103B100036061E43FB6A019604001E1E5FD0C37A60
:103B2000827A1B021343027B12041A43437B1B0657
:103B30001343372B53D92C4D38212800FFF75CFF56
:103B4000E279A37912021A43237A617A1B041343A0
:103B5000090619432A0038236079B04700283ED16E
:103B60006B782A781B021343AA7812041A43EB7865
:103B70001B0613431D4A934231D12A002B003532D4
:103B8000127834331B7812021A432B0036331B7819
:103B900029001B0413432A003732127812061A43F5
:103BA0001600BB6B34229847864218D16B7A2A7A6A
:103BB0001B021343AA7AA17A12041A43EB7A1B065A
:103BC0001343E27A12020A43217B09041143627B08
:103BD00012060A43934202D2019AD3180193019824
:103BE000FEBDC04658B60020C4B400204F54415416
:103BF00030B51C4B01001B6889B0002B2FD01A2256
:103C000001A801F076F8184D184B1622019301A96E
:103C1000AB6B002098471A236B441880000C588027
:103C20001A2228786968FFF737FF002805D0104866
:103C300000F0C6FE042464420EE02C6B1A232878A0
:103C4000696801AAA047041E0A48F1D12878230018
:103C5000220021002D6BA847200009B030BD0224AE
:103C6000E9E7C04654B6002058B600204F544154EE
:103C7000B2580008DD58000800B5010089B00028DE
:103C800011D0C36A002B0BD0036B002B08D0436B01
:103C9000002B05D0836B002B02D0C36B002B06D109
:103CA000104800F08DFE0120404209B000BD4022C6
:103CB0000D4801F01EF801220C4B0D4858211A60E6
:103CC000FFF79AFE01A8FFF79DFE0028EDD01A220B
:103CD000084901A801F00DF8074B01A80193FFF76F
:103CE00087FFE2E70859000858B6002054B60020C4
:103CF000FCB500205C5E00084F54415410B588B0FC
:103D000001A8FFF77FFE6B461B7A022B31D16B4671
:103D1000029A1B7B120A1B061343092201336A44D1
:103D2000022B0DD90023694601A80B721370537042
:103D30009370D370FFF75CFF00281DD008B010BD52
:103D4000190A1370517001A8190C1B0E9170D370D1
:103D5000FFF74EFF0028F1D10A4B02A8DC6BFFF7FA
:103D6000CDFEA047002801D10020E7E71120404206
:103D7000E4E7023B022BEFD9034800F021FE1020BC
:103D8000F5E7C04658B600204459000810B5094B65
:103D900088B01B68002B02D1002008B010BD01AC18
:103DA0002000FFF72FFE0028F6D120790338434288
:103DB0005841F2E754B60020F0B5040089B000285D
:103DC00000D1C1E0634B1B68002B00D1BEE0624E06
:103DD0003068002800D0BBE0637822781B021343D0
:103DE000A27812041A43E3781B0613435B4A9342FA
:103DF00005D05B4800F0E4FD07256D426DE0594BAE
:103E000034229B6B21009847230034331A78013306
:103E10001B781B02134322003632127812041A4315
:103E2000230037331B781B061343834204D04E48CC
:103E300000F0C6FD0825E0E701AF3800FFF7E2FD1E
:103E4000627A237A12021A43A37AF9891B04134374
:103E5000E27A464812061A433B8A1B040B439A42F5
:103E60000DD2617B207B09020143A07B0004084343
:103E7000E17B090601435218934204D23C4800F00A
:103E80009FFD0A25B9E73B488B42F8D3B9897B8966
:103E90000904787A1943FFF7FFFD002804D036485B
:103EA00000F08EFD0425A8E701233B7108336B4425
:103EB000187058709870D8701A236B441880588006
:103EC0003800FFF795FE051E0AD02C4800F078FD5B
:103ED000002338003B71FFF78BFE280009B0F0BDCE
:103EE00058213000FFF788FD3000002701233822D9
:103EF000210008303360776000F0FBFE627B237B9B
:103F000012021A43A37B1B041343E27B12061A43DB
:103F10003264637A217A1B020B43A17A09041943A4
:103F2000E37A1B060B439B187364637C227C1B02A1
:103F30001343A27C12041A43E37CF7641B06134369
:103F4000B36437657765C8E7012556E7022554E76E
:103F5000032552E754B60020FCB500204F544154CD
:103F60007C59000858B60020B0590008E1590008F3
:103F7000175A0008565A0008875A0008B85A00080D
:103F8000F0B58BB0050016000191002901D1002A7F
:103F90005BD1304B1B68002B59D02F4F3B68002B57
:103FA00016D003A8FFF72EFD041E06D021002B48D3
:103FB00000F0A0FC20000BB0F0BD0E237A68534344
:103FC00003AAD2181179012905D0254800F092FCE6
:103FD0000B246442EEE7F96CA94205D02A0021487F
:103FE00000F088FC0C24F4E77B6C7119994206D927
:103FF000320029001C4800F07DFC0D24E9E7002E6A
:10400000D8D09089538900041843411973189C46ED
:10401000138AD5891B042B431B189C4504D91348CC
:1040200000F0CEFC0A24D4E7114B507A1D6B019AA4
:104030003300A847002804D00E4800F0C1FC042437
:10404000C7E7FB6C9B19FB64B4E70124C1E70224BA
:10405000BFE7C04654B60020FCB50020EA5A00086D
:104060001C5B00084F5B0008885B0008CD5B000804
:1040700058B60020005C0008F0B5544B8FB01B68A8
:10408000002B00D199E0524C2368002B00D196E020
:1040900007A8FFF7B7FC051E0FD1636802930E2334
:1040A000029A534307AAD61833790193012B07D0FC
:1040B0001900484800F01EFC0E3D28000FB0F0BD6E
:1040C000E16C626C914205D0434800F013FC0D2571
:1040D0006D42F2E7737A02000593404B01001B6BBF
:1040E0001F0003000598B8472269338A6469F08984
:1040F0001B0411190343994263D8B38971891B04C6
:104100000B4329009B180393002C18D1304EB26C3E
:104110008A4239D10E23029A07A8534307AAD2181C
:104120000223547113719471D4711472FFF760FDFE
:10413000051EC2D158213000FFF75EFCBDE7802389
:1041400025005B009C4200D91D00254B234E0493A3
:10415000F36A049A1F0003992B000598B8470028BA
:1041600031D1019AB36B002A0AD02A0004999847EA
:10417000039B01005B1903930023641B0193C3E7B6
:104180002A0001200499F2E7164800F0B3FB0E2341
:10419000029A07A8534307AAD21814715471947154
:1041A000D4711472FFF724FD051E00D085E7582155
:1041B0003000FFF721FC0F3D7FE7022588E70B2544
:1041C00086E70A2584E7042582E7C04654B6002026
:1041D000FCB500202B5C0008655C000858B6002088
:1041E000FCB40020AF5C000870B51A4B88B01B68A7
:1041F000002B2CD001AD2800FFF704FC164E3468CC
:10420000002C1BD12B79012B1BD10E2300226343E1
:104210002800EB181A715A719A71DA711A72FFF745
:10422000E7FC051E07D158213000FFF7E5FB210010
:104230000A4800F05FFB280008B070BD7468002CCD
:10424000E3DA074800F0BCFB09256D42F3E70225DD
:10425000FBE7C04654B60020FCB500202B5D0008EB
:10426000F35C000810B50B4B04001B6888B0002BF2
:104270000CD001A8FFF7C6FB16236B441C8001A8D5
:10428000240C5C80FFF7B4FC08B010BD0220404253
:10429000FAE7C04654B60020002000B5074B89B0AD
:1042A0001B68834208D001A8FFF7ACFB6A466B4647
:1042B000108BDB8A0004184309B000BD54B60020FF
:1042C000002800D162B6704710B5040010001A1E15
:1042D00005D0002805D0002C03D100F00AFD0020F5
:1042E00010BD01204042FBE77FB50D0002AE01008A
:1042F00008220400300000F0FCFC082229003000F5
:1043000000F054FC0022904202D1002004B070BDA5
:10431000A95CB35C0B40994206D00C48111900F01F
:10432000E9FA01204042F1E70132082AF0D12900E0
:10433000684600F0DEFC009A019B21000120FDF799
:104340003FFD0028E1D021000148E8E7595D000861
:104350007F5D0008002110B5034B082203489981B6
:10436000196000F043FC10BD98B600209CB60020F8
:1043700010B5002808D072B6054B986043680268F3
:1043800082F308889847FEE70120404210BDC046EE
:1043900000ED00E010B50024064B5A7BA24206D087
:1043A00005491868FFF7A0FF0400FFF7D3FF2000BE
:1043B00010BDC04698B600209CB60020030070B522
:1043C000002A0CD000290FD00848002B09D104681E
:1043D0000133A5682B43A360FDF795FA0200100096
:1043E00070BDFDF771FAF9E70A00F8E7C000002098
:1043F000F0B50D00140089B0002814D1002A2BD08C
:10440000FFF7A8FF704BED0AE418E40AE302ED029F
:104410000193EFF3108672B6FDF788FC041E05D0F9
:104420003000FFF74DFF0120404216E08022802738
:10443000664B120201001A6104A8102200F0D6FB9C
:10444000BF030394019B002B09D1FDF7EDFC00286D
:10445000E6D13000FFF734FF002009B0F0BDC024E2
:10446000C0215B4BA4041B6889045A4A1C400B42C0
:1044700007D080235B049C4259D1574B1B683B42B9
:1044800055D1136855499B020B40802109055B18E3
:104490009D426ED3002C03D04F4B1B683B4257D13B
:1044A00013684E499B020B40802109055B1880214F
:1044B0000902002C03D0484C24683C4255D11468B2
:1044C0004648A4020440E418019B641BDB0AE40A8A
:1044D0009C4200D91C0002230591C020C0210493F6
:1044E0003B4B89041B6880041940034207D080239A
:1044F0005B04994241D1384B1B683B423DD1136864
:1045000036489B020340802000051B189D4245D27F
:10451000F8231B06EB18DB0A03A904A806930794EB
:10452000FDF7AEFC002848D0FDF77EFC78E7136865
:104530002B495B020B40802109055B189D4203D289
:10454000802304211B050CE080235B049C42A3D044
:10455000136823495B020B40802109055B18802109
:104560000902802040048442A5D014681C486402DB
:10457000A8E7802304211B059BE7136818485B020A
:104580000340802000051B189D42C1D380235B049B
:10459000994205D01368124A5B0208E0002903D053
:1045A0000D4B1B689B02F5D413680C4A9B02134009
:1045B000802212059B18EB1AADE7019BE4021B1B3E
:1045C0002D1901933EE7C046FF070000002002407E
:1045D0000075FF1FE075FF1F2020024000FC0F0048
:1045E00000FE0700F0B587B00E001F000192002802
:1045F0000BD1002B1BD1EFF3108572B6FDF796FBA4
:10460000002807D02800FFF75BFE01246442200049
:1046100007B0F0BD80223E4B12021A61FFF7BAFECE
:104620000400FDF701FC2800FFF74AFEEFE7019BBD
:10463000002BEAD0EFF31083029372B6FDF776FBFE
:10464000002801D00298DEE78022314B12021A6165
:1046500035000723F7197A1E9A439D432D4B039289
:104660005A7B002A3AD01B689D4237D9FFF792FE49
:10467000041E33D0FDF7D8FB0298D5E7254B04A8DC
:104680005A7B002A2ED01A6895422BD11A1D12CAC5
:1046900012C01A7B01982900801B002384468E4299
:1046A00009D88F4207D96046445C04A81C540124F1
:1046B0009C402243D2B201330131082BEFD1039B3E
:1046C0009D4215D1FF2A13D00121124B1A73597341
:1046D0001D6004AA043303CA03C30835BD42CDD309
:1046E0000024C7E70822290000F003FB0022D1E7DD
:1046F000280004A9FFF7F8FD041EBBD1054B5A7B27
:10470000002AEAD01B689D42E7D1FFF723FEE4E7C9
:104710000020024098B600200D488546FBF78EFF2A
:104720000C480D490D4A002302E0D458C45004330C
:10473000C4188C42F9D30A4A0A4C002301E01360E2
:104740000432A242FBD300F0ADFAFBF7CBFEFEE74A
:104750000040022000000020A0000020C05E0008F1
:10476000A0000020F4B70020FEE70000002310B5F1
:10477000040003604360836081814366C2810361FA
:1047800043618361190008225C3000F02FFA0B4B63
:10479000246263620A4BA3620A4BE3620A4B2363FF
:1047A0000A4B9C4205D00A4B9C4202D0094B9C42CA
:1047B00003D12000583000F099FA10BDD549000807
:1047C000FD490008354A0008614A0008A8B60020E3
:1047D00010B7002078B7002010B5034A03490448F9
:1047E00000F06CF810BDC0460C0000208955000890
:1047F0001C00002041680B4B10B50400994201D009
:1048000000F0C2FEA168084B994202D0200000F0DF
:10481000BBFEE168054B994202D0200000F0B4FED7
:1048200010BDC046A8B6002010B7002078B7002001
:1048300010B5094B094A04211A6009480022FFF704
:1048400095FF012209210748FFF790FF022212215C
:104850000548FFF78BFF10BDE0B70020D9470008DF
:10486000A8B6002010B7002078B7002010B5024885
:1048700000F03DFA10BDC046E9B7002010B502486F
:1048800000F036FA10BDC046E9B7002010B50400AC
:10489000FFF7ECFF236A002B02D0FFF7EFFF10BDFC
:1048A000044B2362044B1B68002BF6D1FFF7C0FFBB
:1048B000F3E7C046F5470008E0B70020F7B514005D
:1048C000002600900191A5686768013F04D524681F
:1048D000002CF8D13000FEBDAB89012B08D90E2287
:1048E000AB5E013304D029000098019B9847064332
:1048F0006835EAE70FB407B5054904AB086804CB8F
:104900008168019300F022FB03B008BC04B0184793
:1049100018000020036A70B505000E008468002BA3
:1049200001D1FFF7B3FF636EDB0705D4A3899B05B5
:1049300002D4A06D00F0DBF9A3891B0702D523691F
:10494000002B1FD12100280000F0D2F8002819D038
:1049500001256D42636EDB0705D4A3899B0502D454
:10496000A06D00F0C5F9280070BD0136A360002BD2
:1049700004DAA2699A4216DC0A2914D023685A1C68
:1049800022601970A3683178013B0029EDD1A36042
:10499000002B0FDA220028000A3100F067F80130FE
:1049A000D6D00A25D6E72200280000F05FF80130B3
:1049B000E8D1CDE723685A1C22600A221A70F0E77A
:1049C00010B5034B01001868FFF7A4FF10BDC046E7
:1049D0001800002070B50C000E25495F00F034F976
:1049E000002803DB636D1B18636570BDA389024A51
:1049F0001340A381F9E7C046FFEFFFFFF8B51F00A2
:104A00008B8905000C001600DB0505D50E23C95E59
:104A10000022022300F004F9A389054A280013406C
:104A2000A38132000E23E15E3B0000F021F9F8BDC6
:104A3000FFEFFFFF70B50C000E25495F00F0F0F8A6
:104A4000A389421C03D1054A1340A38170BD802273
:104A500052011343A3816065F8E7C046FFEFFFFFF3
:104A600010B50E23C95E00F0C9F810BDF8B50600F8
:104A70000D001400002804D0036A002B01D1FFF7B9
:104A800005FFA369A360A3891B0702D52369002B37
:104A900009D12100300000F02BF8002803D00125B7
:104AA0006D422800F8BD23692068EFB2C01A63691F
:104AB000EDB2834205DC2100300000F065FD0028E6
:104AC000EDD1A3680130013BA36023685A1C22602A
:104AD0001F706369834204D0A389DB07E1D50A2DE7
:104AE000DFD12100300000F04FFD0028D9D0D6E7FB
:104AF0002D4B70B5050018680C00002804D0036A1F
:104B0000002B01D1FFF7C2FE0C22A35E1A0723D4AB
:104B1000DA0607D409222A60402201201343A38128
:104B200040423AE05B0713D5616B002908D02300AF
:104B30004433994202D0280000F0E4F80023636374
:104B40002422A3899343A381002363602369236004
:104B50000823A2891343A3812369002B0BD1A02131
:104B60008022A389890092000B40934203D0210048
:104B7000280000F05FFD0C22A35E01211A000A400C
:104B80000B420BD00022A26062695242A261002057
:104B90002269824201D11A06BED470BD990700D4A1
:104BA0006269A260F3E7C0461800002030B5002417
:104BB0000139A24201D1002005E0035D01340D5D01
:104BC000AB42F6D0581B30BD10B5884202D98B18C5
:104BD000984208D300239A4207D0CC5CC4540133D6
:104BE000F9E78B5C8354013AFBD210BD03008218B5
:104BF000934200D1704719700133F9E7002370B573
:104C0000064D040008002B60FBF733FD431C03D165
:104C10002B68002B00D0236070BDC046E4B7002095
:104C200070B50400080011001A000023054D2B6028
:104C3000FBF729FD431C03D12B68002B00D0236018
:104C400070BDC046E4B7002070B504000800110034
:104C50001A000023054D2B60FBF7F1FC431C03D128
:104C60002B68002B00D0236070BDC046E4B7002045
:104C700070B50400080011001A000023054D2B60D8
:104C8000FBF7EAFC431C03D12B68002B00D0236008
:104C900070BDC046E4B70020014B18687047C0469D
:104CA0001800002070B500260C4C0D4D641BA4109C
:104CB000A64209D1002600F041FD0A4C0A4D641BB2
:104CC000A410A64205D170BDB300EB589847013639
:104CD000EEE7B300EB5898470136F2E7B85E0008FC
:104CE000B85E0008BC5E0008B85E000870477047F8
:104CF0007047002310B59A4200D110BDCC5CC4545B
:104D00000133F8E770B505000C1E10D0043C236891
:104D1000002B00DAE418280000F0E0F81D4A1368C0
:104D2000002B05D163601460280000F0DFF870BD2F
:104D3000A34208D9206821188B42F3D119685B6817
:104D400009182160EEE71A005B68002B01D0A3422E
:104D5000F9D911685018A0420BD1206809185018D1
:104D600011608342E0D118685B684118116053609C
:104D7000DAE7A04202D90C232B60D5E7206821187E
:104D80008B4203D119685B68091821606360546025
:104D9000CAE7C046F0B7002070B50F4E0D0031686D
:104DA0000400002902D100F0ABFC30602900200093
:104DB00000F0A6FC431C03D101256D42280070BD04
:104DC0000323C51C9D43A842F8D0291A200000F0F7
:104DD00097FC0130F2D1EFE7ECB70020F7B50322E2
:104DE000CB1C9343083305001F000C2B34D20C2737
:104DF000B94233D8280000F071F8374E33681C00F0
:104E0000002C2FD139002800FFF7C6FF0400431CF7
:104E10005FD134680094009B002B4AD1002C52D003
:104E200023682800E3180099019300F069FC019BB6
:104E3000834248D123682800FF1A3900FFF7ACFFEE
:104E4000013040D02368DB19236033685A68002A98
:104E500033D1009B336019E0002BC9DA0C232B609F
:104E60000020FEBD2168C91B20D40B290AD9E219F4
:104E70002760A34204D1326063681160536005E08B
:104E80005A60F9E76268A3420ED13260280000F050
:104E90002DF8200007220B30231D9043C21A9842A0
:104EA000DFD01B1AA350DCE75A60EFE723006468E9
:104EB000A6E7009C63680093ADE71A005B68A34215
:104EC000FBD10023DAE70C2328002B6000F00EF85A
:104ED000C6E70760DAE7C046F0B7002010B5024821
:104EE000FFF705FF10BDC046E8B7002010B5024827
:104EF000FFF7FEFE10BDC046E8B70020936810B56E
:104F0000013B9360002B04DA9469A34207DB0A2972
:104F100005D01368581C10601970080010BDFFF709
:104F2000A5FD0100F9E7F8B506000F001400D5183B
:104F3000AC4201D1002007E021783A003000FFF7B1
:104F4000DDFF0134431CF3D1F8BD0000F0B5A1B082
:104F50000F0015001E000390002804D0036A002BE8
:104F600001D1FFF793FC7B6EDB0705D4BB899B0562
:104F700002D4B86DFFF7BBFEBB891B0702D53B69A6
:104F8000002B13D139000398FFF7B2FD00280DD094
:104F90007B6EDB0703D50120404221B0F0BDBB8909
:104FA0009B05F8D4B86DFFF7A3FEF4E7002308AC27
:104FB0006361203363761033A37607962E0033782F
:104FC000002B01D0252B48D1731B0593AE420BD08B
:104FD0002A0039000398FFF7A6FF013000D1AEE0A8
:104FE0006369059A9B1863613378002B00D1A6E0B2
:104FF000012200235242626004A954325218751CE7
:105000002360E360A3601370A365594B0522180069
:105010002978059300F086FB6E1C00281FD12268BA
:10502000D30604D5532304A95B1820211970130754
:1050300004D5532304A95B182B2119702B782A2B34
:1050400016D02E0000210A20E3683278751C303A11
:10505000092A50D9002911D117E00136AFE7059B85
:105060002268C01A01238340134335002360CCE734
:10507000079B191D1B680791002B01DB0B9304E0B4
:105080005B42E36002231343236033782E2B0CD161
:1050900073782A2B34D1079B02361A1D1B6807929E
:1050A000002B01DA01235B420993324D03222800D1
:1050B000317800F037FB002806D04023401B8340A6
:1050C0002268013613432360317806222A48751C72
:1050D000217600F027FB002840D0284B002B22D15E
:1050E0000722079B07339343083307936369049AA6
:1050F0009B18636162E743432E0001219B18A4E7DC
:1051000000230A201900013663603278751C303A9A
:10511000092A03D9002BC8D00991C6E741432E00C4
:1051200001238918F1E707AA009221003A00144BE5
:10513000039800E000BF0490049B0133D6D17B6E3E
:10514000DB0705D4BB899B0502D4B86DFFF7D0FD02
:10515000BB895B0600D51EE70D981EE707AA0092E3
:1051600021003A00064B039800F07CF8E3E7C046C4
:105170009F5D0008A55D0008A95D00080000000013
:10518000274F0008F7B5160001938A680B690C00D9
:105190000090934200DA1300220033604332127809
:1051A000002A01D00133336023689B0602D533689F
:1051B000023333602268062315001D401A4227D0AF
:1051C000230043331B785A1E93412268920630D441
:1051D000220001990098089D4332A847013025D04C
:1051E0000622236800251340042B05D13368E568A7
:1051F000ED1AEB43DB171D40A3682269934201DDE2
:105200009B1AED180026B54220D1002010E0013590
:10521000E36832689B1AAB42D2DD22000123019978
:105220000098089F1932B8470130F0D10120404260
:10523000FEBD3020E1184331087021005A1C453171
:105240000978A218433202331170C1E7220001230A
:1052500001990098089F1A32B8470130E6D001360C
:10526000D1E70000F0B58BB006920A0043320793F5
:10527000059003920A7E0C00109B782A09D8622AB6
:105280000BD8002A00D1BAE07A490491582A00D1FB
:105290008EE0250042352A7022E010006338152880
:1052A000F7D8FAF741FF16001F00F6FFF6FFF6FFEA
:1052B000F6FF1F00F6FFF6FFF6FFF6FF9F00360031
:1052C0007E00F6FFF6FFB000F6FF3600F6FFF6FFB1
:1052D000820025001A684235111D196013682B7071
:1052E00001239EE018680968021D0D060BD50668AB
:1052F0001A60002E03DA2D23039A764213705D4B59
:105300000A27049318E006681A604906F1D536B2F8
:10531000EFE70868196840C9050602D4400600D5C1
:10532000B6B21960534B0A2704936F2A00D1023F8B
:105330002300002243331A706368A360002B06DB4E
:1053400004212268039D8A43226033430CD0039DCD
:1053500030003900FAF778FF049B013D5B5C2B704D
:10536000330006009F42F3D9082F09D12368DB07D9
:1053700006D5626823699A4202DC3023013D2B7016
:10538000039B5B1B2361079B210000930598069BF1
:1053900009AAFFF7F7FE013048D1012040420BB0C7
:1053A000F0BD202209680A43226078223249049124
:1053B000210045310A701968226840C9100602D4DC
:1053C000500600D5B6B21960D30702D52023134387
:1053D0002360002E01D01027AAE7202223689343E0
:1053E0002360F8E71A680D68101D49691860136892
:1053F0002E0601D5196002E06D06FBD51980002349
:10540000039D2361BFE71A68111D1960156800210B
:105410002800626800F086F9002801D0401B606017
:10542000636823610023039A1370ACE72A002369A1
:1054300006990598079DA8470130AED023689B07C1
:1054400015D4099BE0689842A9DA1800A7E7220062
:10545000012306990598079E1932B04701309CD068
:105460000135E368099A9B1AAB42F0DCE9E70025B5
:10547000F7E7C046B05D0008C15D0008F7B50C2233
:105480008B5E05000C001A0756D44A68002A02DC1D
:105490000A6C002A4EDDE76A002F4BD000228020E4
:1054A0002E682A601A004001216A0240034233D06C
:1054B000626DA3895B0706D56368D21A636B002B04
:1054C00001D0236CD21A00232800E76A216AB8476A
:1054D000A289431C06D129681D2946D8294BCB40F7
:1054E000DB0742D50023636023692360D20405D51E
:1054F000431C02D12B68002B00D16065616B2E60CC
:10550000002917D023004433994202D02800FFF726
:10551000F9FB002363630DE001232800B847020074
:10552000431CC6D12B68002BC3D01D2B01D0162BDA
:105530001AD12E6000201EE00E69002EFAD00F68EE
:105540000E60BA1B019200229B0700D14A69A2603B
:10555000019B002BEEDDA36A32001F002800019B97
:10556000216AB847002807DCA289402301201343A1
:105570001BB2A3814042FEBD019B36181B1A01934A
:10558000E6E7C046010040200B6970B505000C003D
:10559000002B02D10025280070BD002804D0036A2A
:1055A000002B01D1FFF772F90C22A35E002BF1D082
:1055B000626ED20704D49B0502D4A06DFFF797FB5F
:1055C00028002100FFF75AFF636E0500DB07E2D4D5
:1055D000A3899B05DFD4A06DFFF78AFBDBE7000002
:1055E00070B50E001D000E23C95E140096B0002990
:1055F0000CDAB2898023110019401A4214D1802399
:10560000DB0000202960236016B070BD6A4600F000
:1056100053F80028EDDBF02301991B021940044BDD
:10562000C9184B425941EAE700214023E9E7C04647
:1056300000E0FFFFF0B502268B8905000C0085B065
:10564000334207D023004733236023610123636182
:1056500005B0F0BD03AB02AAFFF7C2FF029F0190A5
:1056600039002800FFF7BAFB002808D10C22A35EFE
:105670009A05EDD4032293431E43A681E2E78023DB
:10568000A28920601343A381039B20616761002BE3
:105690000CD028000E23E15E00F020F8002805D091
:1056A0000323A2899A43023B1343A381A389019A4E
:1056B0001343A381CCE70000002370B5064D04001E
:1056C000080011002B60FAF7D7FF431C03D12B68A9
:1056D000002B00D0236070BDE4B70020002370B51C
:1056E000064D040008002B60FAF7CBFF431C03D1E2
:1056F0002B68002B00D0236070BDC046E4B70020AB
:10570000002370B5064D040008002B60FAF7BEFFB9
:10571000431C03D12B68002B00D0236070BDC04612
:10572000E4B70020C9B28218904201D1002070472E
:1057300003788B42FBD00130F6E70000F8B5C04695
:10574000F8BC08BC9E467047F8B5C046F8BC08BC1B
:105750009E4670470000000001B40248844601BC28
:10576000604700BF69000020626F6F74696E672E2A
:105770002E2E0D006F74615F6D6F64756C655F69CF
:105780006E6974206661696C65643A2025640D0A4F
:1057900000626F6F745F70726570726F63657373B0
:1057A000206572722025640D0A00596D6F64656D65
:1057B00020776169740D00486172644661756C748C
:1057C0000D005B594D5D2072657365743A20257339
:1057D0000D0A0063616E004F5441204F4B2C206234
:1057E0006F6F74206170702E2E2E0D006F7461200B
:1057F00066696E697368206572722025640D0A00FF
:10580000656F740063726300736571006F7461206B
:1058100077720073747265616D206F7666006368DD
:10582000756E6B206F766600796D6F64656D2069AB
:10583000646C652C2072657365740D007278206944
:10584000646C65005B4F54415D5B455D2072656330
:105850006F72645F6C6F61643A20666C617368207C
:1058600072656164206661696C65640D005B4F540C
:10587000415D5B455D20666C6173685F6572617355
:10588000655F736C6F743A20657261736520666141
:10589000696C656420747970653D256C7520616460
:1058A00064723D256C752073697A653D256C750DB4
:1058B0000A005B4F54415D5B455D207265636F720A
:1058C000645F73746F72653A20666C6173682065FB
:1058D00072617365206661696C65640D005B4F548D
:1058E000415D5B455D207265636F72645F73746FC9
:1058F00072653A20666C61736820777269746520FE
:105900006661696C65640D005B4F54415D5B455D8C
:10591000206F74615F6D6F64756C655F696E69742B
:105920003A206D697373696E6720636F6E6669678D
:105930002066756E6374696F6E20706F696E746532
:1059400072730D005B4F54415D5B455D206F746168
:105950005F6D6F64756C655F626F6F745F707265A9
:1059600070726F636573733A206E6F20626F6F742D
:105970002063616E6469646174650D005B4F54411E
:105980005D5B455D206F74615F646F776E6C6F6106
:10599000645F73746172743A207061636B616765F0
:1059A000206D6167696320696E76616C69640D00C2
:1059B0005B4F54415D5B455D206F74615F646F7741
:1059C0006E6C6F61645F73746172743A20686561B4
:1059D0006465722063726320696E76616C69640D20
:1059E000005B4F54415D5B455D206F74615F646F88
:1059F000776E6C6F61645F73746172743A2061706A
:105A0000705F6F6666736574206F7574206F6620B3
:105A100072616E67650D005B4F54415D5B455D20B3
:105A20006F74615F646F776E6C6F61645F737461D4
:105A300072743A206170705F6F66667365742B6173
:105A400070705F73697A652065786365656473203B
:105A5000736C6F740D005B4F54415D5B455D206F4F
:105A600074615F646F776E6C6F61645F7374617291
:105A7000743A206170705F73697A6520746F6F206B
:105A80006C617267650D005B4F54415D5B455D2045
:105A90006F74615F646F776E6C6F61645F73746164
:105AA00072743A20666C6173682065726173652058
:105AB0006661696C65640D005B4F54415D5B455DDB
:105AC000206F74615F646F776E6C6F61645F737475
:105AD0006172743A207265636F72645F73746F727F
